{
  "contractName": "Academia",
  "abi": [
    {
      "inputs": [
        {
          "internalType": "string",
          "name": "_nombreAcademia",
          "type": "string"
        },
        {
          "internalType": "address",
          "name": "_permitidos",
          "type": "address"
        },
        {
          "internalType": "string",
          "name": "_localidad",
          "type": "string"
        }
      ],
      "stateMutability": "nonpayable",
      "type": "constructor"
    },
    {
      "anonymous": false,
      "inputs": [
        {
          "indexed": false,
          "internalType": "address",
          "name": "permitido",
          "type": "address"
        },
        {
          "indexed": false,
          "internalType": "address",
          "name": "contrato",
          "type": "address"
        }
      ],
      "name": "eventAcademiaCreada",
      "type": "event"
    },
    {
      "inputs": [],
      "name": "localidad",
      "outputs": [
        {
          "internalType": "string",
          "name": "",
          "type": "string"
        }
      ],
      "stateMutability": "view",
      "type": "function"
    },
    {
      "inputs": [],
      "name": "nombreAcademia",
      "outputs": [
        {
          "internalType": "string",
          "name": "",
          "type": "string"
        }
      ],
      "stateMutability": "view",
      "type": "function"
    },
    {
      "inputs": [
        {
          "internalType": "uint256",
          "name": "",
          "type": "uint256"
        }
      ],
      "name": "permitidos",
      "outputs": [
        {
          "internalType": "address",
          "name": "",
          "type": "address"
        }
      ],
      "stateMutability": "view",
      "type": "function"
    }
  ],
  "bytecode": "0x60806040523480156200001157600080fd5b50604051620008b8380380620008b8833981810160405281019062000037919062000249565b82600090805190602001906200004f92919062000110565b506001829080600181540180825580915050600190039060005260206000200160009091909190916101000a81548173ffffffffffffffffffffffffffffffffffffffff021916908373ffffffffffffffffffffffffffffffffffffffff1602179055508060029080519060200190620000cb92919062000110565b507f53b8f6eb469f870d083ef5dde72ec3112c3e9549f3650af2c0acab0cd590822a8230604051620000ff929190620002e2565b60405180910390a15050506200048e565b8280546200011e90620003e0565b90600052602060002090601f0160209004810192826200014257600085556200018e565b82601f106200015d57805160ff19168380011785556200018e565b828001600101855582156200018e579182015b828111156200018d57825182559160200191906001019062000170565b5b5090506200019d9190620001a1565b5090565b5b80821115620001bc576000816000905550600101620001a2565b5090565b6000620001d7620001d18462000343565b6200030f565b905082815260208101848484011115620001f057600080fd5b620001fd848285620003aa565b509392505050565b600081519050620002168162000474565b92915050565b600082601f8301126200022e57600080fd5b815162000240848260208601620001c0565b91505092915050565b6000806000606084860312156200025f57600080fd5b600084015167ffffffffffffffff8111156200027a57600080fd5b62000288868287016200021c565b93505060206200029b8682870162000205565b925050604084015167ffffffffffffffff811115620002b957600080fd5b620002c7868287016200021c565b9150509250925092565b620002dc8162000376565b82525050565b6000604082019050620002f96000830185620002d1565b620003086020830184620002d1565b9392505050565b6000604051905081810181811067ffffffffffffffff8211171562000339576200033862000445565b5b8060405250919050565b600067ffffffffffffffff82111562000361576200036062000445565b5b601f19601f8301169050602081019050919050565b600062000383826200038a565b9050919050565b600073ffffffffffffffffffffffffffffffffffffffff82169050919050565b60005b83811015620003ca578082015181840152602081019050620003ad565b83811115620003da576000848401525b50505050565b60006002820490506001821680620003f957607f821691505b6020821081141562000410576200040f62000416565b5b50919050565b7f4e487b7100000000000000000000000000000000000000000000000000000000600052602260045260246000fd5b7f4e487b7100000000000000000000000000000000000000000000000000000000600052604160045260246000fd5b6200047f8162000376565b81146200048b57600080fd5b50565b61041a806200049e6000396000f3fe608060405234801561001057600080fd5b50600436106100415760003560e01c80630c83e34c146100465780639aebb26f14610076578063df6687f914610094575b600080fd5b610060600480360381019061005b9190610222565b6100b2565b60405161006d9190610293565b60405180910390f35b61007e6100f1565b60405161008b91906102ae565b60405180910390f35b61009c61017f565b6040516100a991906102ae565b60405180910390f35b600181815481106100c257600080fd5b906000526020600020016000915054906101000a900473ffffffffffffffffffffffffffffffffffffffff1681565b600080546100fe9061035b565b80601f016020809104026020016040519081016040528092919081815260200182805461012a9061035b565b80156101775780601f1061014c57610100808354040283529160200191610177565b820191906000526020600020905b81548152906001019060200180831161015a57829003601f168201915b505050505081565b6002805461018c9061035b565b80601f01602080910402602001604051908101604052809291908181526020018280546101b89061035b565b80156102055780601f106101da57610100808354040283529160200191610205565b820191906000526020600020905b8154815290600101906020018083116101e857829003601f168201915b505050505081565b60008135905061021c816103cd565b92915050565b60006020828403121561023457600080fd5b60006102428482850161020d565b91505092915050565b610254816102ec565b82525050565b6000610265826102d0565b61026f81856102db565b935061027f818560208601610328565b610288816103bc565b840191505092915050565b60006020820190506102a8600083018461024b565b92915050565b600060208201905081810360008301526102c8818461025a565b905092915050565b600081519050919050565b600082825260208201905092915050565b60006102f7826102fe565b9050919050565b600073ffffffffffffffffffffffffffffffffffffffff82169050919050565b6000819050919050565b60005b8381101561034657808201518184015260208101905061032b565b83811115610355576000848401525b50505050565b6000600282049050600182168061037357607f821691505b602082108114156103875761038661038d565b5b50919050565b7f4e487b7100000000000000000000000000000000000000000000000000000000600052602260045260246000fd5b6000601f19601f8301169050919050565b6103d68161031e565b81146103e157600080fd5b5056fea264697066735822122090b811102b035cb700d7ce62bb1a8ef484b0df20d1ff8c0a42b199a871f84c7d64736f6c63430008000033",
  "immutableReferences": {},
  "source": "// SPDX-License-Identifier: MIT\npragma solidity ^0.8.0;\n\ncontract Academia {\n    string public nombreAcademia;\n    address[] public permitidos;\n    string public localidad;\n\n    bool verificado;\n    address[] alumnos;\n\n    // --------------------- Events ---------------------\n    event eventAcademiaCreada(address permitido, address contrato);\n\n    constructor(\n        string memory _nombreAcademia,\n        address _permitidos,\n        string memory _localidad\n    ) {\n        nombreAcademia = _nombreAcademia;\n        permitidos.push(_permitidos);\n        localidad = _localidad;\n\n        emit eventAcademiaCreada(_permitidos, address(this));\n    }\n}\n",
  "sourcePath": "/home/facu/Documents/Works/Solidity/certificados/contracts/Academia.sol",
  "compiler": {
    "name": "solc",
    "version": "0.8.0+commit.c7dfd78e.Emscripten.clang"
  },
  "schemaVersion": "3.4.3",
  "updatedAt": "2022-01-27T20:40:22.969Z",
  "devdoc": {
    "kind": "dev",
    "methods": {},
    "version": 1
  },
  "userdoc": {
    "kind": "user",
    "methods": {},
    "version": 1
  }
}