{
  "contractName": "arrayPlus",
  "abi": [
    {
      "inputs": [
        {
          "internalType": "address[]",
          "name": "_direcciones",
          "type": "address[]"
        },
        {
          "internalType": "address",
          "name": "element",
          "type": "address"
        }
      ],
      "name": "findIndex",
      "outputs": [
        {
          "internalType": "uint256",
          "name": "",
          "type": "uint256"
        }
      ],
      "stateMutability": "pure",
      "type": "function",
      "constant": true
    }
  ],
  "bytecode": "0x6103cd610053600b82828239805160001a607314610046577f4e487b7100000000000000000000000000000000000000000000000000000000600052600060045260246000fd5b30600052607381538281f3fe73000000000000000000000000000000000000000030146080604052600436106100355760003560e01c80636e44fbfb1461003a575b600080fd5b610054600480360381019061004f91906101c2565b61006a565b6040516100619190610225565b60405180910390f35b600080600090505b835181101561010b578273ffffffffffffffffffffffffffffffffffffffff168482815181106100cb577f4e487b7100000000000000000000000000000000000000000000000000000000600052603260045260246000fd5b602002602001015173ffffffffffffffffffffffffffffffffffffffff1614156100f85780915050610111565b8080610103906102d9565b915050610072565b50600090505b92915050565b600061012a61012584610271565b610240565b9050808382526020820190508285602086028201111561014957600080fd5b60005b85811015610179578161015f8882610183565b84526020840193506020830192505060018101905061014c565b5050509392505050565b60008135905061019281610380565b92915050565b600082601f8301126101a957600080fd5b81356101b9848260208601610117565b91505092915050565b600080604083850312156101d557600080fd5b600083013567ffffffffffffffff8111156101ef57600080fd5b6101fb85828601610198565b925050602061020c85828601610183565b9150509250929050565b61021f816102cf565b82525050565b600060208201905061023a6000830184610216565b92915050565b6000604051905081810181811067ffffffffffffffff8211171561026757610266610351565b5b8060405250919050565b600067ffffffffffffffff82111561028c5761028b610351565b5b602082029050602081019050919050565b60006102a8826102af565b9050919050565b600073ffffffffffffffffffffffffffffffffffffffff82169050919050565b6000819050919050565b60006102e4826102cf565b91507fffffffffffffffffffffffffffffffffffffffffffffffffffffffffffffffff82141561031757610316610322565b5b600182019050919050565b7f4e487b7100000000000000000000000000000000000000000000000000000000600052601160045260246000fd5b7f4e487b7100000000000000000000000000000000000000000000000000000000600052604160045260246000fd5b6103898161029d565b811461039457600080fd5b5056fea26469706673582212206a88af51ac333d3daf9f0b1fcefc7c6d13285bd91fa023c5586ba53ce736817c64736f6c63430008000033",
  "immutableReferences": {},
  "source": "// SPDX-License-Identifier: MIT\npragma solidity ^0.8.0;\n\nlibrary arrayPlus {\n    function findIndex(address[] memory _direcciones, address element)\n        public\n        pure\n        returns (uint256)\n    {\n        for (uint256 i = 0; i < _direcciones.length; i++) {\n            if (_direcciones[i] == element) {\n                return i;\n            }\n        }\n        return 0;\n    }\n}\n",
  "sourcePath": "/home/facu/Documents/Works/Solidity/certificados/contracts/Arrays.sol",
  "compiler": {
    "name": "solc",
    "version": "0.8.0+commit.c7dfd78e.Emscripten.clang"
  },
  "schemaVersion": "3.4.3",
  "updatedAt": "2022-01-25T03:58:55.444Z",
  "networkType": "ethereum",
  "devdoc": {
    "kind": "dev",
    "methods": {},
    "version": 1
  },
  "userdoc": {
    "kind": "user",
    "methods": {},
    "version": 1
  }
}