{
  "contractName": "Ministerio",
  "abi": [
    {
      "inputs": [],
      "stateMutability": "nonpayable",
      "type": "constructor"
    },
    {
      "anonymous": false,
      "inputs": [
        {
          "indexed": false,
          "internalType": "address",
          "name": "habilitador",
          "type": "address"
        },
        {
          "indexed": false,
          "internalType": "address",
          "name": "academia",
          "type": "address"
        }
      ],
      "name": "eventAltaAcademia",
      "type": "event"
    },
    {
      "anonymous": false,
      "inputs": [
        {
          "indexed": false,
          "internalType": "address",
          "name": "habilitador",
          "type": "address"
        },
        {
          "indexed": false,
          "internalType": "address",
          "name": "habilitado",
          "type": "address"
        }
      ],
      "name": "eventAltaCuenta",
      "type": "event"
    },
    {
      "anonymous": false,
      "inputs": [
        {
          "indexed": false,
          "internalType": "address",
          "name": "deshabilitador",
          "type": "address"
        },
        {
          "indexed": false,
          "internalType": "address",
          "name": "academia",
          "type": "address"
        }
      ],
      "name": "eventBajaAcademia",
      "type": "event"
    },
    {
      "anonymous": false,
      "inputs": [
        {
          "indexed": false,
          "internalType": "address",
          "name": "deshabilitador",
          "type": "address"
        },
        {
          "indexed": false,
          "internalType": "address",
          "name": "deshabilitado",
          "type": "address"
        }
      ],
      "name": "eventBajaCuenta",
      "type": "event"
    },
    {
      "anonymous": false,
      "inputs": [
        {
          "indexed": false,
          "internalType": "address",
          "name": "creado",
          "type": "address"
        }
      ],
      "name": "eventContractoCreado",
      "type": "event"
    },
    {
      "inputs": [
        {
          "internalType": "address",
          "name": "",
          "type": "address"
        },
        {
          "internalType": "uint256",
          "name": "",
          "type": "uint256"
        }
      ],
      "name": "mapAcademias",
      "outputs": [
        {
          "internalType": "address",
          "name": "",
          "type": "address"
        }
      ],
      "stateMutability": "view",
      "type": "function",
      "constant": true
    },
    {
      "inputs": [
        {
          "internalType": "address",
          "name": "",
          "type": "address"
        },
        {
          "internalType": "uint256",
          "name": "",
          "type": "uint256"
        }
      ],
      "name": "mapCertificados",
      "outputs": [
        {
          "internalType": "contract Certificado",
          "name": "",
          "type": "address"
        }
      ],
      "stateMutability": "view",
      "type": "function",
      "constant": true
    },
    {
      "inputs": [
        {
          "internalType": "address",
          "name": "",
          "type": "address"
        }
      ],
      "name": "mapPermitidos",
      "outputs": [
        {
          "internalType": "bool",
          "name": "",
          "type": "bool"
        }
      ],
      "stateMutability": "view",
      "type": "function",
      "constant": true
    },
    {
      "inputs": [
        {
          "internalType": "address",
          "name": "_account",
          "type": "address"
        }
      ],
      "name": "altaCuenta",
      "outputs": [],
      "stateMutability": "nonpayable",
      "type": "function"
    },
    {
      "inputs": [
        {
          "internalType": "address",
          "name": "_account",
          "type": "address"
        }
      ],
      "name": "bajaCuenta",
      "outputs": [],
      "stateMutability": "nonpayable",
      "type": "function"
    },
    {
      "inputs": [
        {
          "internalType": "string",
          "name": "_nombre",
          "type": "string"
        },
        {
          "internalType": "address",
          "name": "_director",
          "type": "address"
        },
        {
          "internalType": "string",
          "name": "_localidad",
          "type": "string"
        }
      ],
      "name": "crearAcademia",
      "outputs": [],
      "stateMutability": "nonpayable",
      "type": "function"
    }
  ],
  "bytecode": "0x608060405234801561001057600080fd5b5033600260006101000a81548173ffffffffffffffffffffffffffffffffffffffff021916908373ffffffffffffffffffffffffffffffffffffffff160217905550600160036000600260009054906101000a900473ffffffffffffffffffffffffffffffffffffffff1673ffffffffffffffffffffffffffffffffffffffff1673ffffffffffffffffffffffffffffffffffffffff16815260200190815260200160002060006101000a81548160ff0219169083151502179055506001600260009054906101000a900473ffffffffffffffffffffffffffffffffffffffff169080600181540180825580915050600190039060005260206000200160009091909190916101000a81548173ffffffffffffffffffffffffffffffffffffffff021916908373ffffffffffffffffffffffffffffffffffffffff1602179055507fc67965c0066c2e115deeba934cc74d6b0aedc5be2e20148fc4effa9db974cfb3600260009054906101000a900473ffffffffffffffffffffffffffffffffffffffff166040516101a291906101be565b60405180910390a161020b565b6101b8816101d9565b82525050565b60006020820190506101d360008301846101af565b92915050565b60006101e4826101eb565b9050919050565b600073ffffffffffffffffffffffffffffffffffffffff82169050919050565b6112f78061021a6000396000f3fe60806040523480156200001157600080fd5b50600436106200006a5760003560e01c80633da9cd41146200006f57806369b9d5c8146200008f5780638e3e0de414620000c55780639ddae23514620000e5578063d239c34d146200011b578063e36eabc01462000151575b600080fd5b6200008d600480360381019062000087919062000857565b62000171565b005b620000ad6004803603810190620000a7919062000883565b62000423565b604051620000bc919062000bbb565b60405180910390f35b620000e36004803603810190620000dd919062000857565b62000472565b005b620001036004803603810190620000fd919062000883565b62000601565b60405162000112919062000b20565b60405180910390f35b62000139600480360381019062000133919062000857565b62000650565b60405162000148919062000b9e565b60405180910390f35b6200016f6004803603810190620001699190620008c4565b62000670565b005b60011515600360003373ffffffffffffffffffffffffffffffffffffffff1673ffffffffffffffffffffffffffffffffffffffff16815260200190815260200160002060009054906101000a900460ff1615151462000207576040517f08c379a0000000000000000000000000000000000000000000000000000000008152600401620001fe9062000c23565b60405180910390fd5b6000600360008373ffffffffffffffffffffffffffffffffffffffff1673ffffffffffffffffffffffffffffffffffffffff16815260200190815260200160002060006101000a81548160ff02191690831515021790555060006001805480602002602001604051908101604052809291908181526020018280548015620002e557602002820191906000526020600020905b8160009054906101000a900473ffffffffffffffffffffffffffffffffffffffff1673ffffffffffffffffffffffffffffffffffffffff16815260200190600101908083116200029a575b505050505073__arrayPlus_____________________________636e44fbfb9091846040518363ffffffff1660e01b81526004016200032692919062000b6a565b60206040518083038186803b1580156200033f57600080fd5b505af415801562000354573d6000803e3d6000fd5b505050506040513d601f19601f820116820180604052508101906200037a91906200094c565b905060018181548110620003b7577f4e487b7100000000000000000000000000000000000000000000000000000000600052603260045260246000fd5b9060005260206000200160006101000a81549073ffffffffffffffffffffffffffffffffffffffff02191690557f795994eb936500543b9277dbd6d17fa42d4232b0529f59645322ba81a709bab833836040516200041792919062000b3d565b60405180910390a15050565b600460205281600052604060002081815481106200044057600080fd5b906000526020600020016000915091509054906101000a900473ffffffffffffffffffffffffffffffffffffffff1681565b60011515600360003373ffffffffffffffffffffffffffffffffffffffff1673ffffffffffffffffffffffffffffffffffffffff16815260200190815260200160002060009054906101000a900460ff1615151462000508576040517f08c379a0000000000000000000000000000000000000000000000000000000008152600401620004ff9062000c23565b60405180910390fd5b6001600360008373ffffffffffffffffffffffffffffffffffffffff1673ffffffffffffffffffffffffffffffffffffffff16815260200190815260200160002060006101000a81548160ff0219169083151502179055506001819080600181540180825580915050600190039060005260206000200160009091909190916101000a81548173ffffffffffffffffffffffffffffffffffffffff021916908373ffffffffffffffffffffffffffffffffffffffff1602179055507f4e2689d9bf7961bd55edf3f434828bfd43b09db1290dca27495ab9807de4aab23382604051620005f692919062000b3d565b60405180910390a150565b600560205281600052604060002081815481106200061e57600080fd5b906000526020600020016000915091509054906101000a900473ffffffffffffffffffffffffffffffffffffffff1681565b60036020528060005260406000206000915054906101000a900460ff1681565b6000838383604051620006839062000792565b620006919392919062000bd8565b604051809103906000f080158015620006ae573d6000803e3d6000fd5b509050600560003373ffffffffffffffffffffffffffffffffffffffff1673ffffffffffffffffffffffffffffffffffffffff168152602001908152602001600020819080600181540180825580915050600190039060005260206000200160009091909190916101000a81548173ffffffffffffffffffffffffffffffffffffffff021916908373ffffffffffffffffffffffffffffffffffffffff1602179055507f621b0e4aa2aa1a6cad240683b0348cf45596853c6547968c4a495cf621344b1033826040516200078492919062000b3d565b60405180910390a150505050565b6104958062000e2d83390190565b6000620007b7620007b18462000c79565b62000c45565b905082815260208101848484011115620007d057600080fd5b620007dd84828562000d73565b509392505050565b600081359050620007f68162000df8565b92915050565b600082601f8301126200080e57600080fd5b813562000820848260208601620007a0565b91505092915050565b6000813590506200083a8162000e12565b92915050565b600081519050620008518162000e12565b92915050565b6000602082840312156200086a57600080fd5b60006200087a84828501620007e5565b91505092915050565b600080604083850312156200089757600080fd5b6000620008a785828601620007e5565b9250506020620008ba8582860162000829565b9150509250929050565b600080600060608486031215620008da57600080fd5b600084013567ffffffffffffffff811115620008f557600080fd5b6200090386828701620007fc565b93505060206200091686828701620007e5565b925050604084013567ffffffffffffffff8111156200093457600080fd5b6200094286828701620007fc565b9150509250925092565b6000602082840312156200095f57600080fd5b60006200096f8482850162000840565b91505092915050565b6000620009868383620009b4565b60208301905092915050565b6200099d8162000d01565b82525050565b620009ae8162000d01565b82525050565b620009bf8162000d01565b82525050565b6000620009d28262000cbc565b620009de818562000cdf565b9350620009eb8362000cac565b8060005b8381101562000a2257815162000a06888262000978565b975062000a138362000cd2565b925050600181019050620009ef565b5085935050505092915050565b62000a3a8162000d15565b82525050565b62000a4b8162000d4b565b82525050565b600062000a5e8262000cc7565b62000a6a818562000cf0565b935062000a7c81856020860162000d82565b62000a878162000de7565b840191505092915050565b600062000aa160468362000cf0565b91507f4e6f20657374617320686162696c69646164207061726120616772656761722060008301527f6f747261206375656e7461207175652067657374696f6e65206c61732061636160208301527f64656d69617300000000000000000000000000000000000000000000000000006040830152606082019050919050565b600060208201905062000b37600083018462000992565b92915050565b600060408201905062000b54600083018562000992565b62000b63602083018462000992565b9392505050565b6000604082019050818103600083015262000b868185620009c5565b905062000b976020830184620009a3565b9392505050565b600060208201905062000bb5600083018462000a2f565b92915050565b600060208201905062000bd2600083018462000a40565b92915050565b6000606082019050818103600083015262000bf4818662000a51565b905062000c05602083018562000992565b818103604083015262000c19818462000a51565b9050949350505050565b6000602082019050818103600083015262000c3e8162000a92565b9050919050565b6000604051905081810181811067ffffffffffffffff8211171562000c6f5762000c6e62000db8565b5b8060405250919050565b600067ffffffffffffffff82111562000c975762000c9662000db8565b5b601f19601f8301169050602081019050919050565b6000819050602082019050919050565b600081519050919050565b600081519050919050565b6000602082019050919050565b600082825260208201905092915050565b600082825260208201905092915050565b600062000d0e8262000d21565b9050919050565b60008115159050919050565b600073ffffffffffffffffffffffffffffffffffffffff82169050919050565b6000819050919050565b600062000d588262000d5f565b9050919050565b600062000d6c8262000d21565b9050919050565b82818337600083830152505050565b60005b8381101562000da257808201518184015260208101905062000d85565b8381111562000db2576000848401525b50505050565b7f4e487b7100000000000000000000000000000000000000000000000000000000600052604160045260246000fd5b6000601f19601f8301169050919050565b62000e038162000d01565b811462000e0f57600080fd5b50565b62000e1d8162000d41565b811462000e2957600080fd5b5056fe608060405234801561001057600080fd5b5060405161049538038061049583398181016040528101906100329190610224565b8260009080519060200190610048929190610104565b506001829080600181540180825580915050600190039060005260206000200160009091909190916101000a81548173ffffffffffffffffffffffffffffffffffffffff021916908373ffffffffffffffffffffffffffffffffffffffff16021790555080600290805190602001906100c2929190610104565b507f53b8f6eb469f870d083ef5dde72ec3112c3e9549f3650af2c0acab0cd590822a82306040516100f49291906102b2565b60405180910390a1505050610448565b828054610110906103a1565b90600052602060002090601f0160209004810192826101325760008555610179565b82601f1061014b57805160ff1916838001178555610179565b82800160010185558215610179579182015b8281111561017857825182559160200191906001019061015d565b5b509050610186919061018a565b5090565b5b808211156101a357600081600090555060010161018b565b5090565b60006101ba6101b58461030c565b6102db565b9050828152602081018484840111156101d257600080fd5b6101dd84828561036e565b509392505050565b6000815190506101f481610431565b92915050565b600082601f83011261020b57600080fd5b815161021b8482602086016101a7565b91505092915050565b60008060006060848603121561023957600080fd5b600084015167ffffffffffffffff81111561025357600080fd5b61025f868287016101fa565b9350506020610270868287016101e5565b925050604084015167ffffffffffffffff81111561028d57600080fd5b610299868287016101fa565b9150509250925092565b6102ac8161033c565b82525050565b60006040820190506102c760008301856102a3565b6102d460208301846102a3565b9392505050565b6000604051905081810181811067ffffffffffffffff8211171561030257610301610402565b5b8060405250919050565b600067ffffffffffffffff82111561032757610326610402565b5b601f19601f8301169050602081019050919050565b60006103478261034e565b9050919050565b600073ffffffffffffffffffffffffffffffffffffffff82169050919050565b60005b8381101561038c578082015181840152602081019050610371565b8381111561039b576000848401525b50505050565b600060028204905060018216806103b957607f821691505b602082108114156103cd576103cc6103d3565b5b50919050565b7f4e487b7100000000000000000000000000000000000000000000000000000000600052602260045260246000fd5b7f4e487b7100000000000000000000000000000000000000000000000000000000600052604160045260246000fd5b61043a8161033c565b811461044557600080fd5b50565b603f806104566000396000f3fe6080604052600080fdfea26469706673582212206ab47706c78d419e883aa7c41f7320a5225dc731ca23d7b549f40a067358019564736f6c63430008000033a2646970667358221220dad0367fd36f84ff316df9635e95de337af5562a85e873d281a503cfba99c98a64736f6c63430008000033",
  "immutableReferences": {},
  "source": "// SPDX-License-Identifier: MIT\npragma solidity ^0.8.0;\nimport \"./Certificado.sol\";\nimport \"./Academia.sol\";\nimport {arrayPlus} from \"./Arrays.sol\";\n\ncontract Ministerio {\n    // --------------------- Address ---------------------\n    address[] academias;\n    address[] permitidos;\n    address owner;\n\n    // --------------------- Mapping ---------------------\n    mapping(address => bool) public mapPermitidos;\n    mapping(address => Certificado[]) public mapCertificados;\n    mapping(address => address[]) public mapAcademias;\n\n    // --------------------- Events ---------------------\n    event eventContractoCreado(address creado);\n    event eventAltaCuenta(address habilitador, address habilitado);\n    event eventBajaCuenta(address deshabilitador, address deshabilitado);\n\n    event eventAltaAcademia(address habilitador, address academia);\n    event eventBajaAcademia(address deshabilitador, address academia);\n\n    // --------------------- Events ---------------------\n    using arrayPlus for *;\n\n    // --------------------- Modifiers ---------------------\n    modifier isPermitido() {\n        require(\n            mapPermitidos[msg.sender] == true,\n            \"No estas habilidad para agregar otra cuenta que gestione las academias\"\n        );\n        _;\n    }\n\n    constructor() {\n        owner = msg.sender;\n        mapPermitidos[owner] = true;\n        permitidos.push(owner);\n\n        emit eventContractoCreado(owner);\n    }\n\n    // --------------------- Function ---------------------\n    function altaCuenta(address _account) public isPermitido {\n        mapPermitidos[_account] = true;\n        permitidos.push(_account);\n\n        emit eventAltaCuenta(msg.sender, _account);\n    }\n\n    function bajaCuenta(address _account) public isPermitido {\n        mapPermitidos[_account] = false;\n        uint256 index = permitidos.findIndex(_account);\n        delete permitidos[index];\n\n        emit eventBajaCuenta(msg.sender, _account);\n    }\n\n    function crearAcademia(\n        string memory _nombre,\n        address _director,\n        string memory _localidad\n    ) public {\n        address direccion = address(\n            new Academia(_nombre, _director, _localidad)\n        );\n        mapAcademias[msg.sender].push(direccion);\n\n        emit eventAltaAcademia(msg.sender, direccion);\n    }\n}\n",
  "sourcePath": "/home/facu/Documents/Works/Solidity/certificados/contracts/Ministerio.sol",
  "compiler": {
    "name": "solc",
    "version": "0.8.0+commit.c7dfd78e.Emscripten.clang"
  },
  "schemaVersion": "3.4.3",
  "updatedAt": "2022-01-25T03:58:55.490Z",
  "networkType": "ethereum",
  "devdoc": {
    "kind": "dev",
    "methods": {},
    "version": 1
  },
  "userdoc": {
    "kind": "user",
    "methods": {},
    "version": 1
  }
}