{
  "contractName": "Ministerio",
  "abi": [
    {
      "inputs": [],
      "stateMutability": "nonpayable",
      "type": "constructor"
    },
    {
      "anonymous": false,
      "inputs": [
        {
          "indexed": false,
          "internalType": "address",
          "name": "habilitador",
          "type": "address"
        },
        {
          "indexed": false,
          "internalType": "address",
          "name": "academia",
          "type": "address"
        }
      ],
      "name": "eventAltaAcademia",
      "type": "event"
    },
    {
      "anonymous": false,
      "inputs": [
        {
          "indexed": false,
          "internalType": "address",
          "name": "habilitador",
          "type": "address"
        },
        {
          "indexed": false,
          "internalType": "address",
          "name": "habilitado",
          "type": "address"
        }
      ],
      "name": "eventAltaCuenta",
      "type": "event"
    },
    {
      "anonymous": false,
      "inputs": [
        {
          "indexed": false,
          "internalType": "address",
          "name": "deshabilitador",
          "type": "address"
        },
        {
          "indexed": false,
          "internalType": "address",
          "name": "academia",
          "type": "address"
        }
      ],
      "name": "eventBajaAcademia",
      "type": "event"
    },
    {
      "anonymous": false,
      "inputs": [
        {
          "indexed": false,
          "internalType": "address",
          "name": "deshabilitador",
          "type": "address"
        },
        {
          "indexed": false,
          "internalType": "address",
          "name": "deshabilitado",
          "type": "address"
        }
      ],
      "name": "eventBajaCuenta",
      "type": "event"
    },
    {
      "anonymous": false,
      "inputs": [
        {
          "indexed": false,
          "internalType": "address",
          "name": "creado",
          "type": "address"
        }
      ],
      "name": "eventContractoCreado",
      "type": "event"
    },
    {
      "inputs": [
        {
          "internalType": "uint256",
          "name": "",
          "type": "uint256"
        }
      ],
      "name": "academias",
      "outputs": [
        {
          "internalType": "address",
          "name": "",
          "type": "address"
        }
      ],
      "stateMutability": "view",
      "type": "function",
      "constant": true
    },
    {
      "inputs": [
        {
          "internalType": "address",
          "name": "",
          "type": "address"
        },
        {
          "internalType": "uint256",
          "name": "",
          "type": "uint256"
        }
      ],
      "name": "mapAcademias",
      "outputs": [
        {
          "internalType": "address",
          "name": "",
          "type": "address"
        }
      ],
      "stateMutability": "view",
      "type": "function",
      "constant": true
    },
    {
      "inputs": [
        {
          "internalType": "address",
          "name": "",
          "type": "address"
        },
        {
          "internalType": "uint256",
          "name": "",
          "type": "uint256"
        }
      ],
      "name": "mapCertificados",
      "outputs": [
        {
          "internalType": "contract Certificado",
          "name": "",
          "type": "address"
        }
      ],
      "stateMutability": "view",
      "type": "function",
      "constant": true
    },
    {
      "inputs": [
        {
          "internalType": "address",
          "name": "",
          "type": "address"
        }
      ],
      "name": "mapPermitidos",
      "outputs": [
        {
          "internalType": "bool",
          "name": "",
          "type": "bool"
        }
      ],
      "stateMutability": "view",
      "type": "function",
      "constant": true
    },
    {
      "inputs": [],
      "name": "owner",
      "outputs": [
        {
          "internalType": "address",
          "name": "",
          "type": "address"
        }
      ],
      "stateMutability": "view",
      "type": "function",
      "constant": true
    },
    {
      "inputs": [
        {
          "internalType": "uint256",
          "name": "",
          "type": "uint256"
        }
      ],
      "name": "permitidos",
      "outputs": [
        {
          "internalType": "address",
          "name": "",
          "type": "address"
        }
      ],
      "stateMutability": "view",
      "type": "function",
      "constant": true
    },
    {
      "inputs": [
        {
          "internalType": "address",
          "name": "_account",
          "type": "address"
        }
      ],
      "name": "altaCuenta",
      "outputs": [],
      "stateMutability": "nonpayable",
      "type": "function"
    },
    {
      "inputs": [
        {
          "internalType": "address",
          "name": "_account",
          "type": "address"
        }
      ],
      "name": "bajaCuenta",
      "outputs": [],
      "stateMutability": "nonpayable",
      "type": "function"
    },
    {
      "inputs": [
        {
          "internalType": "string",
          "name": "_nombre",
          "type": "string"
        },
        {
          "internalType": "address",
          "name": "_director",
          "type": "address"
        },
        {
          "internalType": "string",
          "name": "_localidad",
          "type": "string"
        }
      ],
      "name": "funcCrearAcademia",
      "outputs": [],
      "stateMutability": "nonpayable",
      "type": "function"
    },
    {
      "inputs": [
        {
          "internalType": "address",
          "name": "_address",
          "type": "address"
        }
      ],
      "name": "funcAutorizarCuenta",
      "outputs": [],
      "stateMutability": "nonpayable",
      "type": "function"
    },
    {
      "inputs": [],
      "name": "funcAcademias",
      "outputs": [
        {
          "internalType": "address[]",
          "name": "",
          "type": "address[]"
        }
      ],
      "stateMutability": "view",
      "type": "function",
      "constant": true
    },
    {
      "inputs": [],
      "name": "funcPermitido",
      "outputs": [
        {
          "internalType": "address[]",
          "name": "",
          "type": "address[]"
        }
      ],
      "stateMutability": "view",
      "type": "function",
      "constant": true
    }
  ],
  "bytecode": "0x608060405234801561001057600080fd5b5033600260006101000a81548173ffffffffffffffffffffffffffffffffffffffff021916908373ffffffffffffffffffffffffffffffffffffffff160217905550600160036000600260009054906101000a900473ffffffffffffffffffffffffffffffffffffffff1673ffffffffffffffffffffffffffffffffffffffff1673ffffffffffffffffffffffffffffffffffffffff16815260200190815260200160002060006101000a81548160ff0219169083151502179055506001600260009054906101000a900473ffffffffffffffffffffffffffffffffffffffff169080600181540180825580915050600190039060005260206000200160009091909190916101000a81548173ffffffffffffffffffffffffffffffffffffffff021916908373ffffffffffffffffffffffffffffffffffffffff1602179055507fc67965c0066c2e115deeba934cc74d6b0aedc5be2e20148fc4effa9db974cfb3600260009054906101000a900473ffffffffffffffffffffffffffffffffffffffff166040516101a291906101be565b60405180910390a161020b565b6101b8816101d9565b82525050565b60006020820190506101d360008301846101af565b92915050565b60006101e4826101eb565b9050919050565b600073ffffffffffffffffffffffffffffffffffffffff82169050919050565b6117fb8061021a6000396000f3fe60806040523480156200001157600080fd5b5060043610620000c45760003560e01c80638d54416b116200007b5780638d54416b14620001cb5780638da5cb5b14620001ed5780638e3e0de4146200020f5780639ddae235146200022f578063a956e5611462000265578063d239c34d146200028757620000c4565b80630ade19d714620000c95780630c83e34c14620000e957806331bfa0de146200011f5780633da9cd41146200015557806369b9d5c81462000175578063716dcc7614620001ab575b600080fd5b620000e76004803603810190620000e1919062000c65565b620002bd565b005b62000107600480360381019062000101919062000d5a565b620003b9565b60405162000116919062000fef565b60405180910390f35b6200013d600480360381019062000137919062000d5a565b620003f9565b6040516200014c919062000fef565b60405180910390f35b6200017360048036038101906200016d919062000c65565b62000439565b005b6200019360048036038101906200018d919062000c91565b620006eb565b604051620001a29190620010ae565b60405180910390f35b620001c96004803603810190620001c3919062000cd2565b6200073a565b005b620001d56200085c565b604051620001e4919062001039565b60405180910390f35b620001f7620008ec565b60405162000206919062000fef565b60405180910390f35b6200022d600480360381019062000227919062000c65565b62000912565b005b6200024d600480360381019062000247919062000c91565b62000aa1565b6040516200025c919062000fef565b60405180910390f35b6200026f62000af0565b6040516200027e919062001039565b60405180910390f35b620002a560048036038101906200029f919062000c65565b62000b80565b604051620002b4919062001091565b60405180910390f35b60011515600360003373ffffffffffffffffffffffffffffffffffffffff1673ffffffffffffffffffffffffffffffffffffffff16815260200190815260200160002060009054906101000a900460ff1615151462000353576040517f08c379a00000000000000000000000000000000000000000000000000000000081526004016200034a9062001116565b60405180910390fd5b6001819080600181540180825580915050600190039060005260206000200160009091909190916101000a81548173ffffffffffffffffffffffffffffffffffffffff021916908373ffffffffffffffffffffffffffffffffffffffff16021790555050565b60018181548110620003ca57600080fd5b906000526020600020016000915054906101000a900473ffffffffffffffffffffffffffffffffffffffff1681565b600081815481106200040a57600080fd5b906000526020600020016000915054906101000a900473ffffffffffffffffffffffffffffffffffffffff1681565b60011515600360003373ffffffffffffffffffffffffffffffffffffffff1673ffffffffffffffffffffffffffffffffffffffff16815260200190815260200160002060009054906101000a900460ff16151514620004cf576040517f08c379a0000000000000000000000000000000000000000000000000000000008152600401620004c69062001116565b60405180910390fd5b6000600360008373ffffffffffffffffffffffffffffffffffffffff1673ffffffffffffffffffffffffffffffffffffffff16815260200190815260200160002060006101000a81548160ff02191690831515021790555060006001805480602002602001604051908101604052809291908181526020018280548015620005ad57602002820191906000526020600020905b8160009054906101000a900473ffffffffffffffffffffffffffffffffffffffff1673ffffffffffffffffffffffffffffffffffffffff168152602001906001019080831162000562575b505050505073__arrayPlus_____________________________636e44fbfb9091846040518363ffffffff1660e01b8152600401620005ee9291906200105d565b60206040518083038186803b1580156200060757600080fd5b505af41580156200061c573d6000803e3d6000fd5b505050506040513d601f19601f8201168201806040525081019062000642919062000d86565b9050600181815481106200067f577f4e487b7100000000000000000000000000000000000000000000000000000000600052603260045260246000fd5b9060005260206000200160006101000a81549073ffffffffffffffffffffffffffffffffffffffff02191690557f795994eb936500543b9277dbd6d17fa42d4232b0529f59645322ba81a709bab83383604051620006df9291906200100c565b60405180910390a15050565b600460205281600052604060002081815481106200070857600080fd5b906000526020600020016000915091509054906101000a900473ffffffffffffffffffffffffffffffffffffffff1681565b60008383836040516200074d9062000ba0565b6200075b93929190620010cb565b604051809103906000f08015801562000778573d6000803e3d6000fd5b509050600560003373ffffffffffffffffffffffffffffffffffffffff1673ffffffffffffffffffffffffffffffffffffffff168152602001908152602001600020819080600181540180825580915050600190039060005260206000200160009091909190916101000a81548173ffffffffffffffffffffffffffffffffffffffff021916908373ffffffffffffffffffffffffffffffffffffffff1602179055507f621b0e4aa2aa1a6cad240683b0348cf45596853c6547968c4a495cf621344b1033826040516200084e9291906200100c565b60405180910390a150505050565b60606000805480602002602001604051908101604052809291908181526020018280548015620008e257602002820191906000526020600020905b8160009054906101000a900473ffffffffffffffffffffffffffffffffffffffff1673ffffffffffffffffffffffffffffffffffffffff168152602001906001019080831162000897575b5050505050905090565b600260009054906101000a900473ffffffffffffffffffffffffffffffffffffffff1681565b60011515600360003373ffffffffffffffffffffffffffffffffffffffff1673ffffffffffffffffffffffffffffffffffffffff16815260200190815260200160002060009054906101000a900460ff16151514620009a8576040517f08c379a00000000000000000000000000000000000000000000000000000000081526004016200099f9062001116565b60405180910390fd5b6001600360008373ffffffffffffffffffffffffffffffffffffffff1673ffffffffffffffffffffffffffffffffffffffff16815260200190815260200160002060006101000a81548160ff0219169083151502179055506001819080600181540180825580915050600190039060005260206000200160009091909190916101000a81548173ffffffffffffffffffffffffffffffffffffffff021916908373ffffffffffffffffffffffffffffffffffffffff1602179055507f4e2689d9bf7961bd55edf3f434828bfd43b09db1290dca27495ab9807de4aab2338260405162000a969291906200100c565b60405180910390a150565b6005602052816000526040600020818154811062000abe57600080fd5b906000526020600020016000915091509054906101000a900473ffffffffffffffffffffffffffffffffffffffff1681565b6060600180548060200260200160405190810160405280929190818152602001828054801562000b7657602002820191906000526020600020905b8160009054906101000a900473ffffffffffffffffffffffffffffffffffffffff1673ffffffffffffffffffffffffffffffffffffffff168152602001906001019080831162000b2b575b5050505050905090565b60036020528060005260406000206000915054906101000a900460ff1681565b610495806200133183390190565b600062000bc562000bbf846200116c565b62001138565b90508281526020810184848401111562000bde57600080fd5b62000beb84828562001277565b509392505050565b60008135905062000c0481620012fc565b92915050565b600082601f83011262000c1c57600080fd5b813562000c2e84826020860162000bae565b91505092915050565b60008135905062000c488162001316565b92915050565b60008151905062000c5f8162001316565b92915050565b60006020828403121562000c7857600080fd5b600062000c888482850162000bf3565b91505092915050565b6000806040838503121562000ca557600080fd5b600062000cb58582860162000bf3565b925050602062000cc88582860162000c37565b9150509250929050565b60008060006060848603121562000ce857600080fd5b600084013567ffffffffffffffff81111562000d0357600080fd5b62000d118682870162000c0a565b935050602062000d248682870162000bf3565b925050604084013567ffffffffffffffff81111562000d4257600080fd5b62000d508682870162000c0a565b9150509250925092565b60006020828403121562000d6d57600080fd5b600062000d7d8482850162000c37565b91505092915050565b60006020828403121562000d9957600080fd5b600062000da98482850162000c4e565b91505092915050565b600062000dc0838362000de6565b60208301905092915050565b600062000dda838362000e19565b60208301905092915050565b62000df18162001205565b82525050565b62000e028162001205565b82525050565b62000e138162001205565b82525050565b62000e248162001205565b82525050565b600062000e3782620011af565b62000e438185620011d2565b935062000e50836200119f565b8060005b8381101562000e8757815162000e6b888262000db2565b975062000e7883620011c5565b92505060018101905062000e54565b5085935050505092915050565b600062000ea182620011af565b62000ead8185620011e3565b935062000eba836200119f565b8060005b8381101562000ef157815162000ed5888262000dcc565b975062000ee283620011c5565b92505060018101905062000ebe565b5085935050505092915050565b62000f098162001219565b82525050565b62000f1a816200124f565b82525050565b600062000f2d82620011ba565b62000f398185620011f4565b935062000f4b81856020860162001286565b62000f5681620012eb565b840191505092915050565b600062000f70604683620011f4565b91507f4e6f20657374617320686162696c69646164207061726120616772656761722060008301527f6f747261206375656e7461207175652067657374696f6e65206c61732061636160208301527f64656d69617300000000000000000000000000000000000000000000000000006040830152606082019050919050565b600060208201905062001006600083018462000df7565b92915050565b600060408201905062001023600083018562000df7565b62001032602083018462000df7565b9392505050565b6000602082019050818103600083015262001055818462000e2a565b905092915050565b6000604082019050818103600083015262001079818562000e94565b90506200108a602083018462000e08565b9392505050565b6000602082019050620010a8600083018462000efe565b92915050565b6000602082019050620010c5600083018462000f0f565b92915050565b60006060820190508181036000830152620010e7818662000f20565b9050620010f8602083018562000df7565b81810360408301526200110c818462000f20565b9050949350505050565b60006020820190508181036000830152620011318162000f61565b9050919050565b6000604051905081810181811067ffffffffffffffff82111715620011625762001161620012bc565b5b8060405250919050565b600067ffffffffffffffff8211156200118a5762001189620012bc565b5b601f19601f8301169050602081019050919050565b6000819050602082019050919050565b600081519050919050565b600081519050919050565b6000602082019050919050565b600082825260208201905092915050565b600082825260208201905092915050565b600082825260208201905092915050565b6000620012128262001225565b9050919050565b60008115159050919050565b600073ffffffffffffffffffffffffffffffffffffffff82169050919050565b6000819050919050565b60006200125c8262001263565b9050919050565b6000620012708262001225565b9050919050565b82818337600083830152505050565b60005b83811015620012a657808201518184015260208101905062001289565b83811115620012b6576000848401525b50505050565b7f4e487b7100000000000000000000000000000000000000000000000000000000600052604160045260246000fd5b6000601f19601f8301169050919050565b620013078162001205565b81146200131357600080fd5b50565b620013218162001245565b81146200132d57600080fd5b5056fe608060405234801561001057600080fd5b5060405161049538038061049583398181016040528101906100329190610224565b8260009080519060200190610048929190610104565b506001829080600181540180825580915050600190039060005260206000200160009091909190916101000a81548173ffffffffffffffffffffffffffffffffffffffff021916908373ffffffffffffffffffffffffffffffffffffffff16021790555080600290805190602001906100c2929190610104565b507f53b8f6eb469f870d083ef5dde72ec3112c3e9549f3650af2c0acab0cd590822a82306040516100f49291906102b2565b60405180910390a1505050610448565b828054610110906103a1565b90600052602060002090601f0160209004810192826101325760008555610179565b82601f1061014b57805160ff1916838001178555610179565b82800160010185558215610179579182015b8281111561017857825182559160200191906001019061015d565b5b509050610186919061018a565b5090565b5b808211156101a357600081600090555060010161018b565b5090565b60006101ba6101b58461030c565b6102db565b9050828152602081018484840111156101d257600080fd5b6101dd84828561036e565b509392505050565b6000815190506101f481610431565b92915050565b600082601f83011261020b57600080fd5b815161021b8482602086016101a7565b91505092915050565b60008060006060848603121561023957600080fd5b600084015167ffffffffffffffff81111561025357600080fd5b61025f868287016101fa565b9350506020610270868287016101e5565b925050604084015167ffffffffffffffff81111561028d57600080fd5b610299868287016101fa565b9150509250925092565b6102ac8161033c565b82525050565b60006040820190506102c760008301856102a3565b6102d460208301846102a3565b9392505050565b6000604051905081810181811067ffffffffffffffff8211171561030257610301610402565b5b8060405250919050565b600067ffffffffffffffff82111561032757610326610402565b5b601f19601f8301169050602081019050919050565b60006103478261034e565b9050919050565b600073ffffffffffffffffffffffffffffffffffffffff82169050919050565b60005b8381101561038c578082015181840152602081019050610371565b8381111561039b576000848401525b50505050565b600060028204905060018216806103b957607f821691505b602082108114156103cd576103cc6103d3565b5b50919050565b7f4e487b7100000000000000000000000000000000000000000000000000000000600052602260045260246000fd5b7f4e487b7100000000000000000000000000000000000000000000000000000000600052604160045260246000fd5b61043a8161033c565b811461044557600080fd5b50565b603f806104566000396000f3fe6080604052600080fdfea26469706673582212206ab47706c78d419e883aa7c41f7320a5225dc731ca23d7b549f40a067358019564736f6c63430008000033a2646970667358221220c46ab1bf1e169019b49a0ca680c21d0697665629c081d90001db44388e830ac364736f6c63430008000033",
  "immutableReferences": {},
  "source": "// SPDX-License-Identifier: MIT\npragma solidity ^0.8.0;\nimport \"./Certificado.sol\";\nimport \"./Academia.sol\";\nimport {arrayPlus} from \"./Arrays.sol\";\n\ncontract Ministerio {\n    // --------------------- Address ---------------------\n    address[] public academias;\n    address[] public permitidos;\n    address public owner;\n\n    // --------------------- Mapping ---------------------\n    mapping(address => bool) public mapPermitidos;\n    mapping(address => Certificado[]) public mapCertificados;\n    mapping(address => address[]) public mapAcademias;\n\n    // --------------------- Events ---------------------\n    event eventContractoCreado(address creado);\n    event eventAltaCuenta(address habilitador, address habilitado);\n    event eventBajaCuenta(address deshabilitador, address deshabilitado);\n\n    event eventAltaAcademia(address habilitador, address academia);\n    event eventBajaAcademia(address deshabilitador, address academia);\n\n    // --------------------- Events ---------------------\n    using arrayPlus for *;\n\n    // --------------------- Modifiers ---------------------\n    modifier isPermitido() {\n        require(\n            mapPermitidos[msg.sender] == true,\n            \"No estas habilidad para agregar otra cuenta que gestione las academias\"\n        );\n        _;\n    }\n\n    constructor() {\n        owner = msg.sender;\n        mapPermitidos[owner] = true;\n        permitidos.push(owner);\n\n        emit eventContractoCreado(owner);\n    }\n\n    // --------------------- Function ---------------------\n    function altaCuenta(address _account) public isPermitido {\n        mapPermitidos[_account] = true;\n        permitidos.push(_account);\n\n        emit eventAltaCuenta(msg.sender, _account);\n    }\n\n    function bajaCuenta(address _account) public isPermitido {\n        mapPermitidos[_account] = false;\n        uint256 index = permitidos.findIndex(_account);\n        delete permitidos[index];\n\n        emit eventBajaCuenta(msg.sender, _account);\n    }\n\n    function funcCrearAcademia(\n        string memory _nombre,\n        address _director,\n        string memory _localidad\n    ) public {\n        address direccion = address(\n            new Academia(_nombre, _director, _localidad)\n        );\n        mapAcademias[msg.sender].push(direccion);\n\n        emit eventAltaAcademia(msg.sender, direccion);\n    }\n\n    function funcAutorizarCuenta(address _address) public isPermitido {\n        permitidos.push(_address);\n    }\n\n    function funcAcademias() public view returns (address[] memory) {\n        return academias;\n    }\n\n    function funcPermitido() public view returns (address[] memory) {\n        return permitidos;\n    }\n}\n",
  "sourcePath": "/home/facu/Documents/Works/Solidity/certificados/contracts/Ministerio.sol",
  "compiler": {
    "name": "solc",
    "version": "0.8.0+commit.c7dfd78e.Emscripten.clang"
  },
  "schemaVersion": "3.4.3",
  "updatedAt": "2022-01-26T23:42:17.276Z",
  "networkType": "ethereum",
  "devdoc": {
    "kind": "dev",
    "methods": {},
    "version": 1
  },
  "userdoc": {
    "kind": "user",
    "methods": {},
    "version": 1
  }
}