{
  "contractName": "Ministerio",
  "abi": [
    {
      "inputs": [],
      "stateMutability": "nonpayable",
      "type": "constructor"
    },
    {
      "anonymous": false,
      "inputs": [
        {
          "indexed": false,
          "internalType": "address",
          "name": "habilitador",
          "type": "address"
        },
        {
          "indexed": false,
          "internalType": "address",
          "name": "academia",
          "type": "address"
        }
      ],
      "name": "eventAltaAcademia",
      "type": "event"
    },
    {
      "anonymous": false,
      "inputs": [
        {
          "indexed": false,
          "internalType": "address",
          "name": "habilitador",
          "type": "address"
        },
        {
          "indexed": false,
          "internalType": "address",
          "name": "habilitado",
          "type": "address"
        }
      ],
      "name": "eventAltaCuenta",
      "type": "event"
    },
    {
      "anonymous": false,
      "inputs": [
        {
          "indexed": false,
          "internalType": "address",
          "name": "deshabilitador",
          "type": "address"
        },
        {
          "indexed": false,
          "internalType": "address",
          "name": "academia",
          "type": "address"
        }
      ],
      "name": "eventBajaAcademia",
      "type": "event"
    },
    {
      "anonymous": false,
      "inputs": [
        {
          "indexed": false,
          "internalType": "address",
          "name": "deshabilitador",
          "type": "address"
        },
        {
          "indexed": false,
          "internalType": "address",
          "name": "deshabilitado",
          "type": "address"
        }
      ],
      "name": "eventBajaCuenta",
      "type": "event"
    },
    {
      "anonymous": false,
      "inputs": [
        {
          "indexed": false,
          "internalType": "address",
          "name": "creado",
          "type": "address"
        }
      ],
      "name": "eventContractoCreado",
      "type": "event"
    },
    {
      "inputs": [
        {
          "internalType": "uint256",
          "name": "",
          "type": "uint256"
        }
      ],
      "name": "academias",
      "outputs": [
        {
          "internalType": "address",
          "name": "",
          "type": "address"
        }
      ],
      "stateMutability": "view",
      "type": "function",
      "constant": true
    },
    {
      "inputs": [
        {
          "internalType": "address",
          "name": "",
          "type": "address"
        },
        {
          "internalType": "uint256",
          "name": "",
          "type": "uint256"
        }
      ],
      "name": "mapAcademias",
      "outputs": [
        {
          "internalType": "address",
          "name": "",
          "type": "address"
        }
      ],
      "stateMutability": "view",
      "type": "function",
      "constant": true
    },
    {
      "inputs": [
        {
          "internalType": "address",
          "name": "",
          "type": "address"
        },
        {
          "internalType": "uint256",
          "name": "",
          "type": "uint256"
        }
      ],
      "name": "mapCertificados",
      "outputs": [
        {
          "internalType": "contract Certificado",
          "name": "",
          "type": "address"
        }
      ],
      "stateMutability": "view",
      "type": "function",
      "constant": true
    },
    {
      "inputs": [
        {
          "internalType": "address",
          "name": "",
          "type": "address"
        }
      ],
      "name": "mapPermitidos",
      "outputs": [
        {
          "internalType": "bool",
          "name": "",
          "type": "bool"
        }
      ],
      "stateMutability": "view",
      "type": "function",
      "constant": true
    },
    {
      "inputs": [],
      "name": "owner",
      "outputs": [
        {
          "internalType": "address",
          "name": "",
          "type": "address"
        }
      ],
      "stateMutability": "view",
      "type": "function",
      "constant": true
    },
    {
      "inputs": [
        {
          "internalType": "uint256",
          "name": "",
          "type": "uint256"
        }
      ],
      "name": "permitidos",
      "outputs": [
        {
          "internalType": "address",
          "name": "",
          "type": "address"
        }
      ],
      "stateMutability": "view",
      "type": "function",
      "constant": true
    },
    {
      "inputs": [
        {
          "internalType": "address",
          "name": "_address",
          "type": "address"
        }
      ],
      "name": "accMapAcademias",
      "outputs": [
        {
          "internalType": "address[]",
          "name": "",
          "type": "address[]"
        }
      ],
      "stateMutability": "view",
      "type": "function",
      "constant": true
    },
    {
      "inputs": [
        {
          "internalType": "address",
          "name": "_account",
          "type": "address"
        }
      ],
      "name": "altaCuenta",
      "outputs": [],
      "stateMutability": "nonpayable",
      "type": "function"
    },
    {
      "inputs": [
        {
          "internalType": "address",
          "name": "_account",
          "type": "address"
        }
      ],
      "name": "bajaCuenta",
      "outputs": [],
      "stateMutability": "nonpayable",
      "type": "function"
    },
    {
      "inputs": [
        {
          "internalType": "string",
          "name": "_nombre",
          "type": "string"
        },
        {
          "internalType": "string",
          "name": "_localidad",
          "type": "string"
        }
      ],
      "name": "funcCrearAcademia",
      "outputs": [],
      "stateMutability": "nonpayable",
      "type": "function"
    },
    {
      "inputs": [
        {
          "internalType": "address",
          "name": "_address",
          "type": "address"
        }
      ],
      "name": "funcAutorizarCuenta",
      "outputs": [],
      "stateMutability": "nonpayable",
      "type": "function"
    },
    {
      "inputs": [],
      "name": "funcAcademias",
      "outputs": [
        {
          "internalType": "address[]",
          "name": "",
          "type": "address[]"
        }
      ],
      "stateMutability": "view",
      "type": "function",
      "constant": true
    },
    {
      "inputs": [],
      "name": "funcPermitidos",
      "outputs": [
        {
          "internalType": "address[]",
          "name": "",
          "type": "address[]"
        }
      ],
      "stateMutability": "view",
      "type": "function",
      "constant": true
    }
  ],
  "bytecode": "0x608060405234801561001057600080fd5b5033600260006101000a81548173ffffffffffffffffffffffffffffffffffffffff021916908373ffffffffffffffffffffffffffffffffffffffff160217905550600160036000600260009054906101000a900473ffffffffffffffffffffffffffffffffffffffff1673ffffffffffffffffffffffffffffffffffffffff1673ffffffffffffffffffffffffffffffffffffffff16815260200190815260200160002060006101000a81548160ff0219169083151502179055506001600260009054906101000a900473ffffffffffffffffffffffffffffffffffffffff169080600181540180825580915050600190039060005260206000200160009091909190916101000a81548173ffffffffffffffffffffffffffffffffffffffff021916908373ffffffffffffffffffffffffffffffffffffffff1602179055507fc67965c0066c2e115deeba934cc74d6b0aedc5be2e20148fc4effa9db974cfb3600260009054906101000a900473ffffffffffffffffffffffffffffffffffffffff166040516101a291906101be565b60405180910390a161020b565b6101b8816101d9565b82525050565b60006020820190506101d360008301846101af565b92915050565b60006101e4826101eb565b9050919050565b600073ffffffffffffffffffffffffffffffffffffffff82169050919050565b611d8e806200021b6000396000f3fe60806040523480156200001157600080fd5b5060043610620000e25760003560e01c8063719695c411620000995780638e3e0de4116200006f5780638e3e0de414620002635780639ddae2351462000283578063a57eaca514620002b9578063d239c34d14620002db57620000e2565b8063719695c414620001e95780638d54416b146200021f5780638da5cb5b146200024157620000e2565b80630ade19d714620000e75780630c83e34c146200010757806316dfa4e9146200013d57806331bfa0de146200015d5780633da9cd41146200019357806369b9d5c814620001b3575b600080fd5b620001056004803603810190620000ff919062000dea565b62000311565b005b6200012560048036038101906200011f919062000eca565b6200040d565b6040516200013491906200115f565b60405180910390f35b6200015b600480360381019062000155919062000e57565b6200044d565b005b6200017b600480360381019062000175919062000eca565b620005d1565b6040516200018a91906200115f565b60405180910390f35b620001b16004803603810190620001ab919062000dea565b62000611565b005b620001d16004803603810190620001cb919062000e16565b620008c3565b604051620001e091906200121e565b60405180910390f35b62000207600480360381019062000201919062000dea565b62000912565b604051620002169190620011a9565b60405180910390f35b62000229620009e1565b604051620002389190620011a9565b60405180910390f35b6200024b62000a71565b6040516200025a91906200115f565b60405180910390f35b6200028160048036038101906200027b919062000dea565b62000a97565b005b620002a160048036038101906200029b919062000e16565b62000c26565b604051620002b091906200115f565b60405180910390f35b620002c362000c75565b604051620002d29190620011a9565b60405180910390f35b620002f96004803603810190620002f3919062000dea565b62000d05565b60405162000308919062001201565b60405180910390f35b60011515600360003373ffffffffffffffffffffffffffffffffffffffff1673ffffffffffffffffffffffffffffffffffffffff16815260200190815260200160002060009054906101000a900460ff16151514620003a7576040517f08c379a00000000000000000000000000000000000000000000000000000000081526004016200039e9062001286565b60405180910390fd5b6001819080600181540180825580915050600190039060005260206000200160009091909190916101000a81548173ffffffffffffffffffffffffffffffffffffffff021916908373ffffffffffffffffffffffffffffffffffffffff16021790555050565b600181815481106200041e57600080fd5b906000526020600020016000915054906101000a900473ffffffffffffffffffffffffffffffffffffffff1681565b6000823383604051620004609062000d25565b6200046e939291906200123b565b604051809103906000f0801580156200048b573d6000803e3d6000fd5b509050600560003373ffffffffffffffffffffffffffffffffffffffff1673ffffffffffffffffffffffffffffffffffffffff168152602001908152602001600020819080600181540180825580915050600190039060005260206000200160009091909190916101000a81548173ffffffffffffffffffffffffffffffffffffffff021916908373ffffffffffffffffffffffffffffffffffffffff1602179055506000819080600181540180825580915050600190039060005260206000200160009091909190916101000a81548173ffffffffffffffffffffffffffffffffffffffff021916908373ffffffffffffffffffffffffffffffffffffffff1602179055507f621b0e4aa2aa1a6cad240683b0348cf45596853c6547968c4a495cf621344b103382604051620005c49291906200117c565b60405180910390a1505050565b60008181548110620005e257600080fd5b906000526020600020016000915054906101000a900473ffffffffffffffffffffffffffffffffffffffff1681565b60011515600360003373ffffffffffffffffffffffffffffffffffffffff1673ffffffffffffffffffffffffffffffffffffffff16815260200190815260200160002060009054906101000a900460ff16151514620006a7576040517f08c379a00000000000000000000000000000000000000000000000000000000081526004016200069e9062001286565b60405180910390fd5b6000600360008373ffffffffffffffffffffffffffffffffffffffff1673ffffffffffffffffffffffffffffffffffffffff16815260200190815260200160002060006101000a81548160ff021916908315150217905550600060018054806020026020016040519081016040528092919081815260200182805480156200078557602002820191906000526020600020905b8160009054906101000a900473ffffffffffffffffffffffffffffffffffffffff1673ffffffffffffffffffffffffffffffffffffffff16815260200190600101908083116200073a575b505050505073__arrayPlus_____________________________636e44fbfb9091846040518363ffffffff1660e01b8152600401620007c6929190620011cd565b60206040518083038186803b158015620007df57600080fd5b505af4158015620007f4573d6000803e3d6000fd5b505050506040513d601f19601f820116820180604052508101906200081a919062000ef6565b90506001818154811062000857577f4e487b7100000000000000000000000000000000000000000000000000000000600052603260045260246000fd5b9060005260206000200160006101000a81549073ffffffffffffffffffffffffffffffffffffffff02191690557f795994eb936500543b9277dbd6d17fa42d4232b0529f59645322ba81a709bab83383604051620008b79291906200117c565b60405180910390a15050565b60046020528160005260406000208181548110620008e057600080fd5b906000526020600020016000915091509054906101000a900473ffffffffffffffffffffffffffffffffffffffff1681565b6060600560008373ffffffffffffffffffffffffffffffffffffffff1673ffffffffffffffffffffffffffffffffffffffff168152602001908152602001600020805480602002602001604051908101604052809291908181526020018280548015620009d557602002820191906000526020600020905b8160009054906101000a900473ffffffffffffffffffffffffffffffffffffffff1673ffffffffffffffffffffffffffffffffffffffff16815260200190600101908083116200098a575b50505050509050919050565b6060600080548060200260200160405190810160405280929190818152602001828054801562000a6757602002820191906000526020600020905b8160009054906101000a900473ffffffffffffffffffffffffffffffffffffffff1673ffffffffffffffffffffffffffffffffffffffff168152602001906001019080831162000a1c575b5050505050905090565b600260009054906101000a900473ffffffffffffffffffffffffffffffffffffffff1681565b60011515600360003373ffffffffffffffffffffffffffffffffffffffff1673ffffffffffffffffffffffffffffffffffffffff16815260200190815260200160002060009054906101000a900460ff1615151462000b2d576040517f08c379a000000000000000000000000000000000000000000000000000000000815260040162000b249062001286565b60405180910390fd5b6001600360008373ffffffffffffffffffffffffffffffffffffffff1673ffffffffffffffffffffffffffffffffffffffff16815260200190815260200160002060006101000a81548160ff0219169083151502179055506001819080600181540180825580915050600190039060005260206000200160009091909190916101000a81548173ffffffffffffffffffffffffffffffffffffffff021916908373ffffffffffffffffffffffffffffffffffffffff1602179055507f4e2689d9bf7961bd55edf3f434828bfd43b09db1290dca27495ab9807de4aab2338260405162000c1b9291906200117c565b60405180910390a150565b6005602052816000526040600020818154811062000c4357600080fd5b906000526020600020016000915091509054906101000a900473ffffffffffffffffffffffffffffffffffffffff1681565b6060600180548060200260200160405190810160405280929190818152602001828054801562000cfb57602002820191906000526020600020905b8160009054906101000a900473ffffffffffffffffffffffffffffffffffffffff1673ffffffffffffffffffffffffffffffffffffffff168152602001906001019080831162000cb0575b5050505050905090565b60036020528060005260406000206000915054906101000a900460ff1681565b6108b880620014a183390190565b600062000d4a62000d4484620012dc565b620012a8565b90508281526020810184848401111562000d6357600080fd5b62000d70848285620013e7565b509392505050565b60008135905062000d89816200146c565b92915050565b600082601f83011262000da157600080fd5b813562000db384826020860162000d33565b91505092915050565b60008135905062000dcd8162001486565b92915050565b60008151905062000de48162001486565b92915050565b60006020828403121562000dfd57600080fd5b600062000e0d8482850162000d78565b91505092915050565b6000806040838503121562000e2a57600080fd5b600062000e3a8582860162000d78565b925050602062000e4d8582860162000dbc565b9150509250929050565b6000806040838503121562000e6b57600080fd5b600083013567ffffffffffffffff81111562000e8657600080fd5b62000e948582860162000d8f565b925050602083013567ffffffffffffffff81111562000eb257600080fd5b62000ec08582860162000d8f565b9150509250929050565b60006020828403121562000edd57600080fd5b600062000eed8482850162000dbc565b91505092915050565b60006020828403121562000f0957600080fd5b600062000f198482850162000dd3565b91505092915050565b600062000f30838362000f56565b60208301905092915050565b600062000f4a838362000f89565b60208301905092915050565b62000f618162001375565b82525050565b62000f728162001375565b82525050565b62000f838162001375565b82525050565b62000f948162001375565b82525050565b600062000fa7826200131f565b62000fb3818562001342565b935062000fc0836200130f565b8060005b8381101562000ff757815162000fdb888262000f22565b975062000fe88362001335565b92505060018101905062000fc4565b5085935050505092915050565b600062001011826200131f565b6200101d818562001353565b93506200102a836200130f565b8060005b838110156200106157815162001045888262000f3c565b9750620010528362001335565b9250506001810190506200102e565b5085935050505092915050565b620010798162001389565b82525050565b6200108a81620013bf565b82525050565b60006200109d826200132a565b620010a9818562001364565b9350620010bb818560208601620013f6565b620010c6816200145b565b840191505092915050565b6000620010e060468362001364565b91507f4e6f20657374617320686162696c69646164207061726120616772656761722060008301527f6f747261206375656e7461207175652067657374696f6e65206c61732061636160208301527f64656d69617300000000000000000000000000000000000000000000000000006040830152606082019050919050565b600060208201905062001176600083018462000f67565b92915050565b600060408201905062001193600083018562000f67565b620011a2602083018462000f67565b9392505050565b60006020820190508181036000830152620011c5818462000f9a565b905092915050565b60006040820190508181036000830152620011e9818562001004565b9050620011fa602083018462000f78565b9392505050565b60006020820190506200121860008301846200106e565b92915050565b60006020820190506200123560008301846200107f565b92915050565b6000606082019050818103600083015262001257818662001090565b905062001268602083018562000f67565b81810360408301526200127c818462001090565b9050949350505050565b60006020820190508181036000830152620012a181620010d1565b9050919050565b6000604051905081810181811067ffffffffffffffff82111715620012d257620012d16200142c565b5b8060405250919050565b600067ffffffffffffffff821115620012fa57620012f96200142c565b5b601f19601f8301169050602081019050919050565b6000819050602082019050919050565b600081519050919050565b600081519050919050565b6000602082019050919050565b600082825260208201905092915050565b600082825260208201905092915050565b600082825260208201905092915050565b6000620013828262001395565b9050919050565b60008115159050919050565b600073ffffffffffffffffffffffffffffffffffffffff82169050919050565b6000819050919050565b6000620013cc82620013d3565b9050919050565b6000620013e08262001395565b9050919050565b82818337600083830152505050565b60005b8381101562001416578082015181840152602081019050620013f9565b8381111562001426576000848401525b50505050565b7f4e487b7100000000000000000000000000000000000000000000000000000000600052604160045260246000fd5b6000601f19601f8301169050919050565b620014778162001375565b81146200148357600080fd5b50565b6200149181620013b5565b81146200149d57600080fd5b5056fe60806040523480156200001157600080fd5b50604051620008b8380380620008b8833981810160405281019062000037919062000249565b82600090805190602001906200004f92919062000110565b506001829080600181540180825580915050600190039060005260206000200160009091909190916101000a81548173ffffffffffffffffffffffffffffffffffffffff021916908373ffffffffffffffffffffffffffffffffffffffff1602179055508060029080519060200190620000cb92919062000110565b507f53b8f6eb469f870d083ef5dde72ec3112c3e9549f3650af2c0acab0cd590822a8230604051620000ff929190620002e2565b60405180910390a15050506200048e565b8280546200011e90620003e0565b90600052602060002090601f0160209004810192826200014257600085556200018e565b82601f106200015d57805160ff19168380011785556200018e565b828001600101855582156200018e579182015b828111156200018d57825182559160200191906001019062000170565b5b5090506200019d9190620001a1565b5090565b5b80821115620001bc576000816000905550600101620001a2565b5090565b6000620001d7620001d18462000343565b6200030f565b905082815260208101848484011115620001f057600080fd5b620001fd848285620003aa565b509392505050565b600081519050620002168162000474565b92915050565b600082601f8301126200022e57600080fd5b815162000240848260208601620001c0565b91505092915050565b6000806000606084860312156200025f57600080fd5b600084015167ffffffffffffffff8111156200027a57600080fd5b62000288868287016200021c565b93505060206200029b8682870162000205565b925050604084015167ffffffffffffffff811115620002b957600080fd5b620002c7868287016200021c565b9150509250925092565b620002dc8162000376565b82525050565b6000604082019050620002f96000830185620002d1565b620003086020830184620002d1565b9392505050565b6000604051905081810181811067ffffffffffffffff8211171562000339576200033862000445565b5b8060405250919050565b600067ffffffffffffffff82111562000361576200036062000445565b5b601f19601f8301169050602081019050919050565b600062000383826200038a565b9050919050565b600073ffffffffffffffffffffffffffffffffffffffff82169050919050565b60005b83811015620003ca578082015181840152602081019050620003ad565b83811115620003da576000848401525b50505050565b60006002820490506001821680620003f957607f821691505b6020821081141562000410576200040f62000416565b5b50919050565b7f4e487b7100000000000000000000000000000000000000000000000000000000600052602260045260246000fd5b7f4e487b7100000000000000000000000000000000000000000000000000000000600052604160045260246000fd5b6200047f8162000376565b81146200048b57600080fd5b50565b61041a806200049e6000396000f3fe608060405234801561001057600080fd5b50600436106100415760003560e01c80630c83e34c146100465780639aebb26f14610076578063df6687f914610094575b600080fd5b610060600480360381019061005b9190610222565b6100b2565b60405161006d9190610293565b60405180910390f35b61007e6100f1565b60405161008b91906102ae565b60405180910390f35b61009c61017f565b6040516100a991906102ae565b60405180910390f35b600181815481106100c257600080fd5b906000526020600020016000915054906101000a900473ffffffffffffffffffffffffffffffffffffffff1681565b600080546100fe9061035b565b80601f016020809104026020016040519081016040528092919081815260200182805461012a9061035b565b80156101775780601f1061014c57610100808354040283529160200191610177565b820191906000526020600020905b81548152906001019060200180831161015a57829003601f168201915b505050505081565b6002805461018c9061035b565b80601f01602080910402602001604051908101604052809291908181526020018280546101b89061035b565b80156102055780601f106101da57610100808354040283529160200191610205565b820191906000526020600020905b8154815290600101906020018083116101e857829003601f168201915b505050505081565b60008135905061021c816103cd565b92915050565b60006020828403121561023457600080fd5b60006102428482850161020d565b91505092915050565b610254816102ec565b82525050565b6000610265826102d0565b61026f81856102db565b935061027f818560208601610328565b610288816103bc565b840191505092915050565b60006020820190506102a8600083018461024b565b92915050565b600060208201905081810360008301526102c8818461025a565b905092915050565b600081519050919050565b600082825260208201905092915050565b60006102f7826102fe565b9050919050565b600073ffffffffffffffffffffffffffffffffffffffff82169050919050565b6000819050919050565b60005b8381101561034657808201518184015260208101905061032b565b83811115610355576000848401525b50505050565b6000600282049050600182168061037357607f821691505b602082108114156103875761038661038d565b5b50919050565b7f4e487b7100000000000000000000000000000000000000000000000000000000600052602260045260246000fd5b6000601f19601f8301169050919050565b6103d68161031e565b81146103e157600080fd5b5056fea264697066735822122090b811102b035cb700d7ce62bb1a8ef484b0df20d1ff8c0a42b199a871f84c7d64736f6c63430008000033a264697066735822122034f1a488c5d83a2d9366d9fc429f789e0cd173117b5eaa4fcc2fd4afb3f8328764736f6c63430008000033",
  "immutableReferences": {},
  "source": "// SPDX-License-Identifier: MIT\npragma solidity ^0.8.0;\nimport \"./Certificado.sol\";\nimport \"./Academia.sol\";\nimport {arrayPlus} from \"./Arrays.sol\";\n\ncontract Ministerio {\n    // --------------------- Address ---------------------\n    address[] public academias;\n    address[] public permitidos;\n    address public owner;\n\n    // --------------------- Mapping ---------------------\n    mapping(address => bool) public mapPermitidos;\n    mapping(address => Certificado[]) public mapCertificados;\n    mapping(address => address[]) public mapAcademias;\n\n    // --------------------- Access Mapping ---------------------\n    function accMapAcademias(address _address)\n        public\n        view\n        returns (address[] memory)\n    {\n        return mapAcademias[_address];\n    }\n\n    // --------------------- Events ---------------------\n    event eventContractoCreado(address creado);\n    event eventAltaCuenta(address habilitador, address habilitado);\n    event eventBajaCuenta(address deshabilitador, address deshabilitado);\n\n    event eventAltaAcademia(address habilitador, address academia);\n    event eventBajaAcademia(address deshabilitador, address academia);\n\n    // --------------------- Events ---------------------\n    using arrayPlus for *;\n\n    // --------------------- Modifiers ---------------------\n    modifier isPermitido() {\n        require(\n            mapPermitidos[msg.sender] == true,\n            \"No estas habilidad para agregar otra cuenta que gestione las academias\"\n        );\n        _;\n    }\n\n    constructor() {\n        owner = msg.sender;\n        mapPermitidos[owner] = true;\n        permitidos.push(owner);\n\n        emit eventContractoCreado(owner);\n    }\n\n    // --------------------- Function ---------------------\n    function altaCuenta(address _account) public isPermitido {\n        mapPermitidos[_account] = true;\n        permitidos.push(_account);\n\n        emit eventAltaCuenta(msg.sender, _account);\n    }\n\n    function bajaCuenta(address _account) public isPermitido {\n        mapPermitidos[_account] = false;\n        uint256 index = permitidos.findIndex(_account);\n        delete permitidos[index];\n\n        emit eventBajaCuenta(msg.sender, _account);\n    }\n\n    function funcCrearAcademia(string memory _nombre, string memory _localidad)\n        public\n    {\n        address direccion = address(\n            new Academia(_nombre, msg.sender, _localidad)\n        );\n        mapAcademias[msg.sender].push(direccion);\n        academias.push(direccion);\n\n        emit eventAltaAcademia(msg.sender, direccion);\n    }\n\n    function funcAutorizarCuenta(address _address) public isPermitido {\n        permitidos.push(_address);\n    }\n\n    function funcAcademias() public view returns (address[] memory) {\n        return academias;\n    }\n\n    function funcPermitidos() public view returns (address[] memory) {\n        return permitidos;\n    }\n}\n",
  "sourcePath": "/home/facu/Documents/Works/Solidity/certificados/contracts/Ministerio.sol",
  "compiler": {
    "name": "solc",
    "version": "0.8.0+commit.c7dfd78e.Emscripten.clang"
  },
  "schemaVersion": "3.4.3",
  "updatedAt": "2022-01-27T20:40:37.697Z",
  "networkType": "ethereum",
  "devdoc": {
    "kind": "dev",
    "methods": {},
    "version": 1
  },
  "userdoc": {
    "kind": "user",
    "methods": {},
    "version": 1
  }
}